:20F000002DE9F04F0F460446ADF11C0D00F08EFBCC4D2068286060686860A068A860D648D5
:20F020008047D64829680160D54CC46069684160A968816004F1C0010161D2488047D2483D
:20F040002968016069684160A968816004F11801C16004F5DA7404617FB397F820008DF819
:20F06000000097F821608DF80160684604F06CFD786A08B1C5490160B86A08B1C44901603C
:20F08000C4483978017079784170B9787E688170F9784660C170BC688460FA6AC261FB685E
:20F0A000C36079694161B969FE698161306800B9BA48B949486000274F70B94CB9495020E4
:20F0C000621C04F110030DF08DF9002700B10127381C0BD005200DF03BF90C270820ADF8A2
:20F0E00000002968ADF802706846884768688047D44E8046002004A90422707007463770A5
:20F100000BF0B4F804984FF0080BB0F5801F0CD020B90DF083F90BF099FA08E00BF06CFA11
:20F120000BF08AFA0420708001E00DF077F93846C54F0146A060C54E39601420718001271C
:20F1400037700DF07BF8FF211422A0620AF0D4FFE01CFF2102220AF0CFFF14200DF06EF8D4
:20F16000BB4E30603068002114220AF0C5FF002008F055FF38460AF067FEB6480188FF2951
:20F1800006D1022101807822001D00210AF0B4FF032004F0DBFC042002F059F9052006F0FE
:20F1A000F9FC062003F037FA072003F019FCAA4F87F800B007F1240002F0ABFA0BF0D6FD38
:20F1C000363705200A213A460BF096F838B10020C0F10901401C07F8011B0A28F8DB9F4842
:20F1E0000927002106AA05AB077010200DF0FAF8A06A9DF8181041729DF81810C1740A3022
:20F200009DF818107F1E00F8011BF9D10DF01CF960612968ADF800B01420ADF80200684674
:20F2200088471527ADF800B00198ADF802702968A061684688470198A968801EE0614046A0
:20F240008847606A0DF010F908B10DF08FF8DFF814920DF029F90DF0F7F8A7696669B7F5BF
:20F260007A7F16D00021801B3A460B4600F004FA4FF47A72002300F077F980464FF47A728D
:20F28000002300F0F9F93A46002300F06DF9301801E0A0EB0608606171487149006820F002
:20F2A0000200086068688047D9F80010D9F8042046468919B1F57A7F0DD34FF47A73B1FBEE
:20F2C000F3F3D218C9F804204FF47A731F46B1FBF7F25A43891AC9F80010A96888474046D8
:20F2E0000DF0F6F85E485E490068002640F0020008602BE0A26A9DF806C0A7F10C080A2066
:20F300003146521E12F8013F9C4504D0401E01F10101F7D118E05FFA81FABAF1FF0F13D085
:20F3200098F804000DF034F898F80610012903D0022908BFB87000E03870504639460CF0BA
:20F3400027FE03E0684400200DF010F80720ADF800B02968ADF8020068468847029F0028DA
:20F36000C8D03B4800687700C35BEBB9761CF6B20A2EF8DB37E0C046014C01102C4F002076
:20F3800034CC010001500010E8480020A1C2010039C301001446002048470020BF28010049
:20F3A00050470020C1C301000A2E1CDA6868804727490968002231F80780CA53A96888479C
:20F3C000294850F8262026704146304690470646FF202070686880471D4909687A5A16432E
:20F3E0007E52A96888470DF05FF80746B7F1FF3F1BD007B91D4FE069B84238BF071C686892
:20F4000080470646236AADF800B01C20ADF802002968019368468847616A3846491C616201
:20F420000DF0C8F8A968304688470A20ADF802004FF0FF37ADF800B0296801976846884778
:20F4400007E7C046044800206444002000480020744400207C470020084800202444002069
:20F4600010E000E0F84700200CCC01008EC2F52800F05CB900BF00BF04F066BB00BF00BF01
:20F480000CF0B0BF00BF00BF0CF062BF00BF00BF0AF0ECBE00BF00BF0CF0C0BF00BF00BFCD
:20F4A0000BF0D4B800BF00BF0BF0A6B800BF00BF0BF0C2B800BF00BF0CF0C0BE00BF00BF85
:20F4C0000AF01ABE00BF00BF08F0A9BD00BF00BF0AF0BABC00BF00BF04F038BB00BF00BFAD
:20F4E00001F0B5BF00BF00BF06F054BB00BF00BF03F091B800BF00BF03F072BA00BF00BF4F
:20F5000002F007B900BF00BF0BF030BC00BF00BF0AF0F2BE00BF00BF0CF096BF00BF00BF5F
:20F520000CF0A2BF00BF00BF0CF020BF00BF00BF0CF0BABF00BF00BF00F09EB800BF00BFE0
:20F5400000F012B800BF00BF0CF0C2BF00BF00BF0CF01EBF00BF00BF0CF01ABD00BF00BFD0
:08F560000DF028B800BF00BF48
:20F568008B4208BF824204D90B1C021C002100207047002B08BF002A0BD10B1C021C0021B3
:20F588000020002B08BF002A1CBFC943C04300F0EBB8F0B51C4615460B460246002000216E
:20F5A800B4FA84F6202E04BFB5FA85F62036B3FA83F7202F04BFB2FA82F72037F61BB6F11D
:20F5C800200727BF05FA07F400257F42B4403EBF25FA07F73C43B540A34208BFAA4201D348
:20F5E800521BA341404149416D0845EAC4756408761EF1D5F0BD002213460A46194671B507
:20F6080010F0030F0BD0002A82BF00F8011BB2F1010210F0030FF6D1002A08BF71BD11F0D7
:20F62800FF0141EA0121042A18D341EA0141082A0FD30E46102A08D30C460D46B2F10F0318
:20F6480012F00F0272C0103BFCD812F0080F18BF42C012F0040F18BF40F8041B12F0020FF6
:20F6680018BF20F8021B12F0010F18BF017071BD30B502FB01F403FB00444FF00005E2FBB4
:20F6880000542146284630BD002A4AD05FEA000C8B071CD1830722D1102A08D370B4103A34
:20F6A80078C978C0103AFBD270BC103238D0042A2CD3082A05D30C2A24BF08C908C008C982
:20F6C80008C008C908C092072AD0920F22E00B780370491C401C521E22D08B07F7D1C3074E
:20F6E80014D18307D8D0121F12D308C903801B0C4380001D121FF8D20AE008C903701B0A2C
:20F7080043701B0A83701B0AC370001D121FF4D2121D05D00B780370491C401C521EF9D1B5
:20F7280060467047B0B50C480C4DA84210D00C480C4CA0420CD0001BC71054F8040B10F8C9
:20F74800011B55F8212054F8041B90477F1EF4D100BF00BFB0BDC04644DA010038DA010030
:20F7680054DA010044DA0100704770476D490860704780B50B460021009101226A4900F0F2
:20F78800BAF802BD80B50B461988172904DB0022009203226549F2E7022002BD38B50D4629
:20F7A8000446A878012818BF02280DD1288800281CBF6868002807D002210AF085FC00901F
:20F7C8002B4605225A4931E0022032BD38B500F01EF81CBF6868002806D000F036F800907A
:20F7E8002B460722534921E0022032BD38B500F00EF81CBF6868002807D002210AF064FCAF
:20F8080000902B4609224C4910E0022032BD0D46044628880028704738B500F024F808B140
:20F8280000F013F800902B460B224449204600F062F832BD38B500F016F808B100F005F8DA
:20F8480000902B460D223E49F0E701210AF03CBC38B500F008F808B1FFF7F7FF00902B467B
:20F868000F223849E2E70D4604466868704738B5FFF7CDFF1CBF6868002807D002210AF06B
:20F8880023FC00902B4611222F49CFE7022032BD80B5002100910023132270E738B50D46F8
:20F8A8000446A86810B105210AF00EFC00902B4617222649BAE780B500210091002319226C
:20F8C8005DE738B5FFF7CFFF10B103210AF0FCFB00902B461B2209E038B5FFF7C4FF10B1C7
:20F8E80003210AF0F1FB00902B461D221849204600F05CFA32BDF8B504460698009015463A
:20F908001E46204600F052FA070009D10548026832B1012D04BF35786D1CE9B2204690475F
:20F928003846F2BD30430020B9F90000F5F9000027FA0000E9FA00007FFB0000BFFB000027
:20F948003FFC00007BFC000081FC0000F1FC000065FD0000F8B506460D46B48934B3B26897
:20F968001778390610D50C2C20DD0C3CA3B213440093A3B27088012105F0E5F808B90120ED
:20F9880003E00221297001E000202870B80900F00100687007F03F07601EA880AF7080B269
:20F9A80008B1B068401CA8600020F2BD0120F2BD0A7802704B8843704A88120A827009798F
:20F9C80024E104290AD1017811704378817803EB01235380C0781071002070470420704714
:20F9E80005E0022B00D1DEE00420704700BF0A8802700988090A417002207047022906D190
:20FA08000178407801EB002111800020704704207047F2E0042B00D100E1042070478A78CD
:20FA280002708878098801280CBF04201220484328E110B50B001CD04B1E017801299BB2C8
:20FA480007D15C0803EB9474A408B3EB840110D108E002290DD1122493FBF4F4122101FBF0
:20FA6800143333B9A1B221B110F8011B917014801EE1042010BD10B500F057F8022261886C
:20FA88008170611D63881B0AC370001D0AF032FB2089801D80B210BD70B51D46052D14460F
:20FAA8001CDD049E2078617800EB012030800222A078E17800EB01207080211D02203071E4
:20FAC800701D0AF017FBA81F308180B2002819BFA01DF0600021F160002070BD042070BDBE
:20FAE80008888004000C704730B54C0801EB9475AD08B1EB850305D1890803D011805060A5
:20FB0800002030BD042030BD10B500F00EF861888170611D6288120AC270001D22790AF0C2
:20FB2800E9FA2079001D80B210BD0C46218801702288120A4270704710B5029C062B1046A0
:20FB480012D1022222710178427801EB02212180C278817801EB02216180011D2279601DC7
:20FB68000AF0C8FA002010BD142B02D110212171E9E7042010BD80E010B50B000BD00378B8
:20FB88005380491E022B89B205DB91FBF3F403FB141101B98AE0042010BD28E7022B00D123
:20FBA80001E00420704711780098527801EB02210180002070470888704740E010B5022BD6
:20FBC80012DB029C207261721078517800EB01202080981E608080B2002819BF901C6060FC
:20FBE80000216160002010BD042010BDB7E009B9002070470420704700BF0A8802700B88DC
:20FC08001B0A43704A8882704988090AC17004207047042B00D101E0042070470098117873
:20FC2800537801EB032101809178D27801EB022141800020704708887047000000BF1180CF
:20FC480001B9002050600020704788884004000C704703EBD3714908B3EB410007D15B0887
:20FC6800022B04DB009883800260002070470420704708887047E2E700BF02464B88088847
:20FC880013705843401C80B2704710B50B000BD003785380491E042B89B205DB91FBF3F4DC
:20FCA80003FB141101B901E0042010BD1480401C5060002010BD18E010B5042B11DB00F038
:20FCC80069F8D478917801EB04214180191F818089B2002919BF111D8160002282600020EC
:20FCE80010BD042010BD000000BF0A8802700B881B0A43704A8882704B881B0AC370888811
:20FD0800001D80B2704710B5042913DB0378447803EB04231380091F8378C478918003EBB8
:20FD2800042389B2538000291ABF001D90609160002010BD042010BD0978017001207047DE
:20FD4800012B04D1009811780170002070470420704709B9002070470420704700BF0A8891
:20FD680002700B881B0A43704888801C80B2704710B5022B0CDB00F00DF8991E418089B2C8
:20FD8800002919BF911C416000224260002010BD042010BD02981178547801EB04210180E9
:20FDA800704709B900207047042070472DE9FF470C9C80468A461646994654B9172004F003
:20FDC8004DFB0125040005D11326304604B0BDE8F087002520460127BAF1000F00F8016B83
:20FDE80002D04946D047471C30060DD51021404604F034FCD8B9B8B22218B9B2204604F033
:20FE080054FE064668B90C370421ADF800100194ADF808706946404603F0E7FD00280646CC
:20FE2800D3D0002DD1D020460CF05CFACDE71926F7E738B5022918BF102984B004461546BF
:20FE480003D1022B18BF102B01D0002017E0994204D10A4629460AF07DFA10E010296946E7
:20FE680006D1284600F00EF810226946204604E000F008F81022694628460AF06BFA05B0C1
:20FE880030BD000038B505000C4618BF002C0BD05FF0100228A120460AF02CF92A78227365
:20FEA80068786073012032BD002032BD38B505460C0018BF002D84B013D0102229466846BA
:20FEC8000AF018F968460021818110221AA10AF041FA012805D1287B20700120697B617014
:20FEE80000E0002005B030BD38B50D464FF6FE71884204460BD0172D09DB03F00DFE2946E0
:20FF0800884204D32046BDE8344004F0D5BB012032BD80B54FF6FE72904205D004F0DAFBCB
:20FF2800010005D1172002BDBDE8014003F0F4BD02BD704700207047FB349B5F80000080EC
:20FF48000010000000000000282809DA4FF6FF73994205D0DFF8302322F8101000207047B4
:20FF680002207047282804DADFF81C1331F8100070474FF6FF70704770B504460D46C34E3E
:20FF88001C22002130460AF0B3F8347775770CF06DFC01000EBF012100211220317070BDD2
:20FFA80010B5BA4CE160A060102200210AF0AFF9012801D1A0680CE010BD10B5B34C6060F8
:20FFC800102200210AF0A3F9012801D1606800E010BDBDE81040102104F015BDAB48406839
:18FFE80070472DE9FC41A94DAF7F042806460C464FF0000824DA297823
:020000040001F9
:20000000032918BF102058D101F08FFA28B900F049F910B900F048F908B112204DE0012EB6
:2000200018BF022E1DD1BCB10622002168460AF063F800F044F838B90622FF2168460AF005
:200040005BF800F03CF808B1022036E00622214668460AF053F80BE00621684604F0D7FC2F
:2000600006E0032E04D16868694604F087FB8046894CAE77042120780CF044F800205FEA81
:200080000801288414D1BEB1684600F05DF85FEA00080DD1032E0FD11D20FFF767FF2884DF
:2000A00050B120784EF6602204210CF0A9F803E05FEA080018BFAF774046BDE8F681062224
:2000C000694620460AF04AB970B5064600243000704D05D121B1062205F110000AF00EF8B6
:2000E000297801290CD10124300004D10221297006F09BFD04E000202870304600F0A6F844
:20010000204670BD38B50024E0B10578614A290006D14178837801EB0321D182C0781076AD
:20012000117802290ED10124280006D103231370117ED08A03F0EEFC01E0002111702846A8
:2001400000F084F8204632BD10B5524C0146A07F78B1062204F1240009F0D0FFA07F04F1CF
:20016000240100F007F804F12400BDE810400CF085BB10BD79B102000DD04A79012808BF98
:2001800042F0C00206D002F03F0203284A7102D142F040024A717047010018BF0120704713
:2001A00070B53C4E317FFF29054615D00A2009F0B1FF040010D0D020207008216570A17042
:2001C0000622B07FE07006F12401201D09F096FF307F21460BF0DCFEF07F01280FD12F49B6
:2001E000086800281EBF806800288047BDE87040294800784EF6602204210CF001B870BDA8
:200200002448806870472348C168086870472148C1680A68521C0A60007FFF281CBF4FF478
:2002200080410BF0FFBE70471A48807F704738B50446184D05F110000CF024FB05F11000B3
:200240001CB9A97F09B105F1240032BD70B5114E317FFF29054619D00E2009F05BFF0400C9
:2002600014D00021D0202070A1706570062206F11001E01C09F042FFF08A6081317E21730F
:200280002146307FBDE870400BF082BE70BD0000A444002078440020304500203445002079
:2002A00004F088BA264900E02649086800B101207047010005D0172801DBFF2801D1012046
:2002C0007047002070472DE9F04E0D4691460027B9F1200F83461E462F7003DB0020BDE8A3
:2002E000F08EC719F8B24845F8D2345C7F1C002CF4D0F8B221188945F0DB16F800A05046C4
:20030000FFF7D7FF7F1C0028E8D0601EDA452870E7D1FFB2F019E2E70B490A781043087085
:20032000704709490A7832EA0000087006D10748006818B14068002818BF004770470000A2
:2003400038430020344300203C430020444300202DE9F0410446884612264FF6FE71404654
:2003600088421546DFF8807908D1B86900281CBF0268002A26D02046904720E04FF6FF710F
:20038000884212D1B86900281CBF0268002A03D020469047060005D02946204600F0D7FA77
:2003A00006000FD13C707D700CE004F02EF948B10078A04205D1294640460CF067FA0646F0
:2003C00000E003263046BDE8F0811FB5044600F072F808B9022029E02088012104F042F92B
:2003E00008B9142022E0208804F04DF9042812D1DFF8F40881894FF6FF72914218BF1120A7
:2004000014D12188818162888280A188C180E288028121894181002002900190228900921D
:20042000E388A2886188208806F057FC04B010BD38B5044684B02088402104F013F9002830
:2004400036D02088ADF8040000F035F8002500281CBFA07A002807D10021684600F0CDF961
:20046000A07AF0B102251CE091218DF800103E2206218DF801208DF802108DF80350A08893
:20048000ADF808006088ADF80600E088ADF80A0068462189ADF80C108DF80350012100F002
:2004A000ACF920880022402104F07AF8284600E0122005B030BD2389E288A188608806F0C7
:2004C00039BB70B50E46DFF824180978022918BF0129144601D1122070BD0CB9022070BD50
:2004E00004F093F8050001D1142070BD1EB1287940F0020028711022214605F1180009F06A
:20050000FDFD2069A862002070BDF8B506000C4601D10220F2BD308804F077F8050001D167
:200520001420F2BDDFF8C4070078022818BF012803D0A87C082802D10CB11220F2BDDFF825
:20054000A877786908B11120F2BDB0200BF076FE786108B91320F2BDB02200F0C1FA7869E9
:2005600031884180A022311D001D09F0C7FD796902200870A87C32887969DFF874670828F9
:200580000CBF012000200B1D317804F055FC06461CB12146284604F02AFE300018BF00F038
:2005A00054FA3046F2BD38B504460D4604F02DF808B9142032BD8DF800506946204604F063
:2005C00046FD32BD70B50022A0B101230624E5B2054415F8015C303D0A2D0BD203FB052213
:2005E0000A25641E6B43E6B2002EF0D1BDE87040104601E0022070BD38B505460C4684B07C
:20060000204604F002F808B9122019E0DFF8E406854228BF022013D210220021684609F02A
:200620006BFD8DF80050290A8DF801102A0C8DF802202D0E8DF803502146684604F042FC7D
:2006400005B030BDF8B50746DFF8A0060078022818BF01280E461D4601D11220F2BD0DB9AF
:200660000220F2BD384603F0D0FF040001D11420F2BDE06A08B10BF029FE1C2128460BF0E5
:20068000CBFFE06208B91320F2BDA17C08290BD1069949B1817E009100F11203028A01467F
:2006A000384604F0CFFD00E00020217941F004010EB141F002012171F2BD2DE9F0410D465E
:2006C00003F0A3FF04001FD0A56200F006FA0646C0B200B92678A76A94F80580102009F03B
:2006E00019FD050010D0D0202870002109226970AA7085F803800622A11D281D09F0FEFC1A
:20070000EF602946F0B21EE0BDE8F0812DE9F04105460E4690461F460E2009F0FBFC040022
:200720000FD0D020207000210C226170A270A68006224146A01D09F0E1FC27732146284651
:2007400001E0BDE8F081BDE8F0410BF021BCF8B50C0086B04FD0A079DFF88C55002828695C
:200760000CBF0826042608B9DFF88C050778042E08D1DFF88805006800281FBF41680029FF
:2007800000208847217D059104F10803608A0490218A0391E08902900196A1880091E279D2
:2007A000E078394600F06FF8E07880B9172104910022E089039004F10801029601920091D5
:2007C0000122E379A188384603F099FEE070286908B100F055F9287868B1697800F0B7F858
:2007E00048B1E378312B04D0A2882978184600F078F80020287007B0F0BD3EB5848859B1C7
:200800000021029101918589009543890289C188204606F020FA37BD204603B0BDE83040B7
:200820003B2106F01ABA70B504460026A08803F0ECFE18B10678A08803F097FEDFF8A8542E
:20084000287838B1864205D1697800F080F848B100202870300005D0A379A288A07831469D
:2008600000F03FF8686908B100F0EFF8A08803F00AFF042802BFA088A989884204BF4FF6B3
:20088000FF70A88170BD2DE9F0410746884616461D46162009F03EFC040020D0D020207095
:2008A00005216770A170E6702DB106222946201D09F024FC04E006220021201D09F01CFC8E
:2008C0000B980A99099A089B079D069F6182207567812573E38122822146404633E7BDE897
:2008E000F081F8B504460D4616461F46082009F011FC010008D0D020087006224C708A702F
:200900008E808F712846EEE0F1BD2DE9F0410546884616461F460C2009F0FCFB040014D0BA
:20092000404603F072FE08B9DFF8CC0300780699D0222270618165700723E570A4F8048076
:20094000E6802781A3702146FDE6BDE8F08110B50C4603F06FFE28B140882146BDE81040A2
:200960000BF094BF122010BD2DE9F84F8046894692461C46484603F048FE05001EBFDFF87E
:200980006873786900285ED000F1A4021821106800B13421906800B1143104B11C3150684F
:2009A00000B1173188B209F0B5FB06004BD0182200F096F800F091F85FEA000B08BF95F861
:2009C00000B0D0200A213070B17086F80180A6F8049086F806A006F118057969D1F8A400D3
:2009E00040B1B5602846D1F8A41000F11C051C2209F084FB7969D1F8AC0040B1F560284633
:200A0000D1F8AC1000F11405142209F077FB3CB13561284600F11C051C22214609F06EFB9C
:200A20007969D1F8A80030B175611722D1F8A810284609F063FB31465FFA8BF00BF0A8FA45
:200A4000BDE8F14F01E0BDE8F18F10B5A64C6069A8B1D0F8A40008B10BF038FC6069D0F8ED
:200A6000A80008B10BF032FC6069D0F8AC0008B10BF02CFC60690BF029FC0020606110BD3C
:200A800010B5994C206940B10BF020FC002020610420BDE81040FFF744BC10BDF8B50646A5
:200AA0000F46384603F0B1FD040015D000F015F8050008BF2578062009F02CFB04000BD04E
:200AC000062200F00DF8D0200E212070A1706670A7802146E8B206E0F1BD2620FFF746BA6B
:200AE000002109F009BBBDE8F4400BF051BA2DE9F84306460F4690469946384603F085FD9F
:200B0000050021D0102009F005FB04001CD01022FFF7E6FFFFF7E1FF00B928780A9B099943
:200B2000089AD02525706670E1720F26A670A78084F8088084F80990A272E3602146BDE872
:200B4000F443C0B20BF024BABDE8F1832DE9F84307468846914603F058FD040028D014203F
:200B600009F0D8FA050023D0FFF7B7FF060008BF2678D020287000210B226970AA70A11D14
:200B80000622E81C09F0BAFA18F0010118BF012129736F8118F00201084618BF01206873C1
:200BA000C5F810902946F0B2BDE8F4430BF0F0B9BDE8F1832DE9F14F90460A9D0B9EDDF8DD
:200BC00030A00D9C8B469946404603F01EFD07003ED09DF8000000283AD1387940F010008A
:200BE0005FEA49714CBF40F0020000F0FD00002D08BF002E08D1BAF1000F08BF002C03D14C
:200C000000F0FB00387123E040F0040038713CB12069B8621022214607F1180009F06EFAC6
:200C20004DB1BBF1000F06D1F86A08B10BF04EFB1C21284609E05EB1BBF1010F08D1F86A2B
:200C400008B10BF043FB1C2130460BF0E5FCF862254F7869002842D085B1D0F8A40028B9A7
:200C60001C200BF0EBFA7969C1F8A4007869D0F8A40018B11C22294609F040FABAF1000F69
:200C800011D07969D1F8A80028B917200BF0D6FA7969C1F8A8007869D0F8A80018B11722A7
:200CA000514609F02BFA8CB17969D1F8AC0028B914200BF0C3FA7969C1F8AC007869D0F82E
:200CC000AC0018B11422214609F018FA9DF8000033464A46414601B0BDE8F04F44E6BDE86E
:200CE000F18F074908607047F4440020954400203045002040420F009444002034450020FD
:200D00004043002070B5DFF81466054630680C4608B1112070BD00F0ECF801D1122070BD69
:200D2000DFF8FC05806800281CBF0078002801D1102070BD0C200BF081FA306040B30120DB
:200D4000FFF7EAFA306805700021306841700A222146801C09F0D2F900F0D5F9040002D0BB
:200D600000F0BCFA15E0DFF8BC050178032910D11D20FFF7FBF8DFF8B015088048B1DFF8A0
:200D8000AC0500784EF6602204210BF039FA00E01324204670BDF8B50E46DFF89415097865
:200DA00011F0050F17461D462BD001F00501314327D0012EDFF8681502D18C680CB301E017
:200DC000CC68F4B11F2F02DC3A0002D00DB90220F2BD08701F220021601C09F08DF93A4616
:200DE0002946601C09F08AF92770384626B1611CBDE8F4400BF04EBD611CBDE8F4400BF0F3
:200E00004DBD1220F2BD38B5DFF81045216809B9122032BD0978814201D0032032BDDFF864
:200E20000C55287802210BF06DF9DFF8F41400204880042128780BF065F9DFF8EC14002051
:200E40000880032223685A70BDE832400BF02ABDF8B5044600F04DF801D11220F2BD1CB1EB
:200E60002078FFF726FA08B90220F2BD6078801C20283CDA207800F0B4F908B11820F2BD8B
:200E8000DFF89C64706800210022002330B345686D7841B9D7B2EF19BF1C202F02DAAD1C6E
:200EA000AA1802E00121AD1CEB180068EEE708200BF0C4F905000FD0082200F091F8716823
:200EC00031B100E0014608680028FBD10D6000E075606C600020F2BD1320F2BDD8B2002854
:200EE000E5D06078DBB2C3189B1C202BDFDB0B20F2BDDFF83C04017811F0050F704780B5D6
:200F000000F026F801D1002002BD00F06AF900B1406802BD38B500F01BF801D1002032BDD6
:200F2000DFF8FC335968002201E00A46096861B14C6825788542F8D10868002A14BF106056
:200F4000586008460BF0C2F900E00024204632BDDFF8DC130A7812F0050F7047DFF8D003BD
:200F6000017811F0050F18BF00F047B91220704770B5DFF8AC43A06818B10BF0A7F90020BC
:200F8000A060E06818B10BF0A1F90020E060DFF8A053287810F0050F1CD004F1100000F0EC
:200FA000B5FB2878002610F0050F11D000F07BF9A06060B100F013F800F075F9E06010B1F7
:200FC00000F00DF804E0A0680BF080F9A6601326304670BD002000F099FB002070BD2022A7
:200FE000002109F089B82DE9F0470146DFF82C638A88012542F206043068DFF82473131BF2
:2010000005D09B1E012B62D99B1E0FD00CE08968097848B10A0004D1457001200BF042FCFE
:20102000014608006CD036E0002569E0896891F800800028F8D04078DFF8F892012831D173
:2010400000F05AF9DFF8E4A2A0B10120FEF78EFF0446422C0AD39AF800004EF660220221EC
:201060000BF0CEF8A4F13C0179800DE04FF47A70444302E0FEF77AFF04462CB19AF800003A
:20108000224602210BF024F832680221517099F8000018B9404600F009F931E0002189F8A3
:2010A00000102DE099F8000050BB032009F032F8010009D0D0200870042281F801808A70D5
:2010C000306800780AF064FF00F008F918E042F2080082428868397806780CBF0124002487
:2010E000FF290DD0042009F015F848B1D0210170022246708270C470014638780AF048FF2E
:201100002846BDE8F087F8B5844F3868002884B02ED0847800F009FA28B10A20FEF726FFBF
:2011200005460B200DE000F0E7F828B10620FEF71DFF0546072004E00820FEF717FF054699
:201140000920FEF713FF064676480078FFF724F83968CA7A03920F1D8B7A029301970346AA
:20116000C97800912246314628460BF09FFB00E0012005B0F0BD70B5014668486B4C00681D
:201180002278674D01291DD16B8813B1694E317821B128B30078BDE8704034E63C2BA8BF70
:2011A000A3F13C000CDA022110460AF0ABFF6A884FF47A704243207802210AF089FF00205B
:2011C000688070BD60B15A4801784B0708D5022110460AF097FF00206880BDE870407DE0DC
:2011E00070BD01464E48406800E0006800281EBF426813788B42F8D17047F8B54C480178B4
:20120000002411F0050F01D11220F2BD444EB06810B900F048F8B060F06810B900F043F8E3
:20122000F060B06800281CBFF168002901D11320F2BDFFF7D4FEF068FFF7D1FE7568B26831
:2012400035B36CB96868117843785F18BF1C202F05DA571C78189B1C5918117009E0012433
:20126000F1686F680A787B78481C10449B1C9A180A7069684A78521C027069680A784270B6
:20128000801C69684A78496808F038FF2D68D6E71078511C0BF0FEFAF068411C00780BF0DD
:2012A000FDFA0020F2BD20200AF0C8BF38B51B4D0446286888B1032008F02CFF010008D020
:2012C000D020087003224C708A70286800780AF05FFE14B1BDE8314000E031BD10B50F4CA3
:2012E000206840B10AF0F2FF002020600120BDE81040FFF716B810BD80B50948806858B1CC
:201300000278431C69460120FEF7DDFF20B10078C10701D5012002BD002002BD3843002012
:2013200010450020964400209844002030450020954400209744002038B504460D4603F03C
:2013400064F9A0B1807C042801D0122032BD3748006808B190F899502946684603F084FB25
:20136000334B6A460221204604F02DFE32BD142032BD80B52F4801784A0707D52E48FFF7C7
:20138000B0FC2E484FF6FF71018001BDBDE802400020FFF7A6BC7CB5012403280D4610D024
:2013A00042F21301884204D04FF6FF7188421ED02AE0A8780C2818BF112826D100F027F866
:2013C00023E0E878A9881D4E1A2804BF32889142F4D06B890093EA882B89FFF796FAA88855
:2013E0003188884211D14FF6FF7232800DE068790024122809D1ADF80040297968886A46F3
:2014000002F028FB012400E00024204676BD38B50A4C20884FF6FF75A84205D0084B0949ED
:201420001A7802F02BFB258031BD0000084500208F5F0100954400202C4500200045002024
:2014400030450020F8440020B3494870704710B5B14C207008F033FD2078BDE81040052103
:2014600002F0B2BA7CB5AC4E30780D46290419D509F03AFE040085F4004511D000F057F8BA
:2014800058B92078A22806BFA44908787078FF2803D021460AF07CFD02E0204608F052FE5B
:2014A000284676BDE90709D5B06800281FBF416800290020884785F0010076BDA90709D5A7
:2014C000706800281FBF416800290120884785F0020076BD690726D5914C2188E9B1481ED1
:2014E000208080B2E0B9FEF7DDFE48B18D4901200870706800281FBF4168002901208847A9
:20150000FEF770FD694603F039F96846FEF71CFE1D20FEF72BFD208002E004210AF0F2FDEE
:2015200085F0040076BD002076BD03F0B2B8F8B502460124107891284FF6FF7102D0A228A3
:201540007AD07EE05378052B4AD00E2B04D00F2B4AD03E2B6CD074E095886F4841F2090361
:20156000E91A2ED040F6F973C91A30D0C91E32D0491E08D0891E022905D9C91E012916D90D
:20158000C91E09D05DE0406800281CBF0168002958D01046884752E06348006800281CBF7C
:2015A0004368002B4ED0114642F20E003EE0806800281CBF0368002B44D011462846984747
:2015C0003DE09068411C0078FEF77EFD37E09068FEF798FD33E090680078FEF7E1FD31E0B1
:2015E0001046FFF720F92DE0958842F20D03E81A13D0801F02D0801F0FD022E04B4E3788EA
:201600008F420AD04A48006800281CBF0368002B18D0114642F2130008E043480068002803
:201620001CBF4368002B0DD011462846984706E0104600F009F802E0508800F04CF8044613
:2016400000E000242046F2BD70B506460125B0780128014612D0022806D0032812D0062825
:2016600016D00A280AD033E02B48806800281CBF416800292DD0304688472AE03146FFF77C
:2016800066F826E0B088324600F025F8054620E00E2008F03FFD04001BD0B08801224021D1
:2016A00002F07EFFD02020701120F1786170A070B188A180F088E080318921817089608158
:2016C000B1891648A181214600780AF061FC00E00025284670BD70B50C46154602F0D3FFE4
:2016E0000126042804D11248006850B1026803E00D48006828B142681AB1294620469047FB
:201700000646304670BD044988607047024948607047084908607047304500209444002047
:2017200098440020974400200C450020004500204043002044430020F8B50C461546002612
:20174000DFF81C73DFF81C1340B1012815D0042818D006281ED0072821D02AE0162C26DA82
:201760001622002107F10C0008F0C6FC2246294607F10C0008F0C2FC1CE0022C17D12888FF
:20178000388117E0082C12D1384629460822FDF77FFF0FE0012C0AD1CA69283103E0012C66
:2017A00005D1CA6B4831287800F03FF802E0182600E002263046F2BD10B50B460024A84966
:2017C00020B1012808D0042809D00DE015220C31184608F093FC08E00889188005E0184698
:2017E0000822FDF755FF00E00224204610BD70470020704780B50021C00706D59BA3994899
:201800001022072101F034F90146084602BD80B50021C00704D5934A508901F055F90146CA
:20182000084602BD90490860704710B50B7884074CBF43F0020303F0FD0304064CBF43F052
:20184000800303F07F0304074CBF43F0080303F0F70384064CBF43F0200303F0DF0310F08F
:20186000AA0F0B7003D0107840F00C0003E018B9107800F0F300107010BD2DE9F8430D468D
:2018800000272878022814461E4667D1696808784978DDF8208000EB012080B25FEA080249
:2018A0001CBFB0F5285F0B205BD14FF42851401A08D0401E21D0401E2FD0401E25D0401E7F
:2018C00031D04BE0DDF82490E8680AF09BFE80B2A0EB08024A45BCBFA0EB08001FFA80F97A
:2018E00009EB0800162806DAA6F800904A46E86800EB08010DE00D2732E0E868008802219E
:2019000031802070000A60702AE0062030800622E968204608F0F2FB22E001203080E968E4
:201920000A7822701CE0E868B0B1082131800288227003881B0A63704188A1704288120AAD
:20194000E270818821718288120A6271C188A171C088000AE07103E0308001E03780012750
:201960003846BDE8F2832DE9F0470F46814638780024022890461D466DD17868089E0178F2
:201980004078DFF8E4A001EB002189B24FF42852891A06D0491E29D0491E4ED0491E39D061
:2019A00059E0F8680AF02EFE80B2B04204D3A919162903DB0D244FE007244DE0FB682A4603
:2019C0004146981908F09AFBAD19F868ADB2C5F116020021401908F08FFBDAF800000028F9
:2019E0001CBF0268002A37D0002123E08EBB022DE0D198F8000098F80110FA6800EB012085
:201A00001080DAF8000000281CBF0268002A23D001210FE0EEB9062DCCD1F8680622414643
:201A200008F06CFBDAF8000000281CBF0268002A12D00321484690470EE056B9012DB9D1BE
:201A400098F80000002813BF0128F9680870802402E00B2400E001242046BDE8F0870000BE
:201A60004045002064450020484300207B1801006719010000000000F8B5DFF8E85A2878D2
:201A8000062460430AF0DAFBDFF8DC1A086008B91320F2BD0020FF222B78984211DA0E68B3
:201AA00004FB00F73E44002814BF4FF6FF734FF6FE733380401C0023F270B2703371C0B27A
:201AC000EAE70FF21D5000F083FD0FF6D910FDF751FE0FF6152002F0FDFC0020F2BDF8B585
:201AE0000546288868B168680378426800F0A6F948B9686803784268DFF8700A00F0A0F97E
:201B000008B90220F2BDA878C01F0A2801D31820F2BDDFF85C6A308820B12988C0F580300B
:201B2000884201DA0120F2BD0C200AF087FB040001D11320F2BD002009E069683788020431
:201B400001EB1233401C5F813188491C318081B22A889142F1D30020206008222946201D57
:201B600008F0CCFA716811B9746004E0014608680028FBD10C600020F2BD70B5DFF8F03941
:201B80005C6802460846002101E02146246894B1A5686E899642F8D1226800290CBF5A60D4
:201BA0000A6018B10822211D08F0A8FA20460AF08DFB002070BD012070BDDFF8B81908704D
:201BC000704770B50D460446287A4107164603D500F06AF8012204E0410608D500F064F8A5
:201BE000002201462046BDE8704002F07DBDC10613D500F059F800F059F860B9304601F0E4
:201C000039FD030005D029462046BDE870400A2218470E2070BD082070BDC00701D4022093
:201C200070BD002070BDF8B50D460446287A010716461F460AD500F037F800F037F8010057
:201C400004D0797A79B3397A01292CD1287A010608D500F029F801462046BDE8F840002274
:201C600002F042BD810619D500F01EF800F01EF830B1787A10B1387A012801D00820F2BDDB
:201C8000304601F0F7FC030006D02946204601B0BDE8F040122218470E20F2BD800701D4EA
:201CA0000320F2BD0020F2BD3046D2E001460122204602F019BD7CB50546002000900E4643
:201CC0000223DFF8B4284FF6FF71012000F02CF8040026D0002304221D21284600F0AAFDBC
:201CE0000190E0B16189ADF8001004220199ADF8022001200870002001994870FF200199D8
:201D0000887033460199C87000226946284600F001F9040006D001980AF0E8FA02E01524ED
:201D200000E00124204676BD2DE9F0478146DFF8400845688A4690461E4600E02D68BDB138
:201D40000027A988B8B28842F8D2A8683A0400EB12346089484528BF824507D35EB1217808
:201D6000606833464246FEF768F820B97F1CE8E70020BDE8F087089810B1A9684A890280FF
:201D80002046F6E7F0B50246DFF8E40740680EE07F1CBBB2B34209D204EB0313B3F80AC069
:201DA0009445F5D101B10D801846F0BD00680028FBD084686589AA42F8DB86887719BA42AC
:201DC000F4DA0027E5E7FEB506460025ADF80450174670894FF6FF7290421C4608D001AD5F
:201DE0000095401C3378726880B2FFF79DFF05463378726800F022F830B933787268DFF88A
:201E00006C0700F01DF808B170890CE033787268DFF8680700F014F858B11DB1BDF8040055
:201E2000B84203D0384600F0D0F803E06889401E00E0708904B120802846FEBDDFF84007F8
:201E40000221FDF7FABF80B500F0EEFA00B1008802BD80B500F0E8FA08B1807802BD102006
:201E600002BD7CB501290446154616D0032918D0052925D0072927D0092929D00B292BD005
:201E80000D292DD00F292FD0112931D0132933D0172934D0192936D039E02946FDF76DFCED
:201EA00033E001F03DFEADF8000069462046FDF76DFC06002CD12988204600F069FC27E056
:201EC0002946FDF76FFC20E02946FDF783FC1CE02946FDF78FFC18E02946FDF7A1FC14E07C
:201EE0002946FDF7ABFC10E02946FDF7B5FC0CE02946FDF7C0FC08E0FDF7CEFC05E02946CF
:201F0000FDF7D0FC01E0FDF7DAFC064600E00226304676BD2DE9FC410E46054617461C46A8
:201F200001A900F08EFA804638BB380014D00020ADF8000069463088FFF724FF012FBDF880
:201F4000000018BF0027FFF784FF01463A46284602F0CAFB804680B931462846FDF7C0FC8A
:201F6000804650B9019DFF2C07D0AB1C1E2229460FF24D5000F0EEFBEC704046BDE8F68107
:201F80007CB50D460446164601A900F05AFA17281AD0300014D00020ADF8000069462888C8
:201FA000FFF7F0FE012EBDF8000018BF0026FFF750FF01463246204602F096FB010003D19A
:201FC00029462046FDF781FC76BD10B50446FFF73AFF01001CBF611E0C18A0B210BD0000AC
:201FE0002DE9F8430E4688B08146B07800241E28174614D1484600F038FA04001EBFA078C0
:20200000FE28FF2822D0002000900022B378E078494600F075FB204600F03BFA16E0122882
:2020200004BF7078012813D0484600F01EFA04001CBF2279002A0BD0100607D4B17848462C
:2020400000F0B8FB207940F08000207100206AE0DFF820552878FF2812D0B078811E17299D
:202060000ED200F085F958B1B07800F0AEF938B1307810B97078012804D1B078122801D0D7
:20208000062050E0B07800F073F9844602A80090B388B26871783078E0470028804641D155
:2020A000B07800F092F9024602A9484690478046E0B9B378042B35D002A80090002228786B
:2020C000494600F01DFB002880462BD1B17802A800F086FB08B100203870B078122804BF95
:2020E000717801291ED0ECB120711BE07078C8B9B1788DF800108DF804806946B078042883
:2021000018BF0628BDF80800ADF802004846FDF734FB28B16B4601221621484600F02EFB1A
:202120004FF00008404609B0BDE8F083002070472DE9FE430D884A88AA4201D32A0001D1B0
:20214000012069E000230024ADF8043002944FF6FF7881460F4621E002942878022834D121
:20216000BDF8006001218DF80610B6082878022854D1688904F8010B022200F055F8A41CC6
:20218000BDF80400401CADF80400B1B2BDF80400884243D26D89454540D06D1C00200090BD
:2021A000002379880022A8B2FFF7BEFD050035D0BDF80400D8B96B4642460521484600F09D
:2021C00039FB0400C8D1112026E002208DF806001221BDF8000090FBF1F62A78102A1DD126
:2021E000688904F8010B00F01FF81034C8E79DF806000128F1D1B9E701A94846FDF7D2FACE
:2022000048B101AB05221621484600F0B7FA10B102980AF06BF80020BDE8FE83BDF80400D5
:202220000028E9D10A20F7E76989090A04F8011B2046696807F062BF38B54C880888844231
:2022400000D308B9012032BD00F014F808B90A2032BD002032BD38B54C880888844200D30B
:2022600008B9012032BD00F005F808B90A2032BD002032BD002500954A1D0B79214653E573
:202280001CB50446084669460088FFF77BFD010001D1012016BDBDF800202046FFF791FCAB
:2022A00016BD7CB506460D46002409E0BDF8002001463046FFF785FC01001DD1641CA4B2A0
:2022C000A888844222DA286810F81420401C694610F8143002EB032290B2FFF753FD002827
:2022E000E4D1286810F8141001702868421C12F814104170012076BD296811F814200A7093
:2023000029684B1C13F814204A7076BD002076BD1CB50C4620886188814200D308B901201A
:2023200016BD23799648621DFFF78AFD08B9102016BD00200090237961882088621DFFF73E
:20234000F3FC08B90A2016BD002016BD38B504460D4669462888FFF715FD08B9012032BD1B
:20236000BDF8002001462B462046FFF75CFC32BD022814D0042814D0062814D008281AD0E3
:202380000A2812D00C2812D00E2812D0102812D0122812D0162812D0182812D013E07948CF
:2023A00070477948704779487047794870477948704779487047794870477948704779485D
:2023C00070477948704700207047022814D0042814D0062814D0082814D00A2818BF0C2876
:2023E00012D00E2812D0102812D0122818BF162810D0182810D012E06C4870476C487047B2
:202400006C4870476C4870476C4870476C4870476C4870476C4870470FF209007047002059
:2024200070470000002070475149496800E0096829B18A6853898342F9D1081D704700203F
:20244000704710B50C4600F010F860B104B120608078FE2801D1172010BDFF2801D1002063
:2024600010BD162010BD022010BD70B53E4A12680021062600E0491C3A4C2578CBB2AB4257
:2024800005D27343D45A8442F5D1D01870BD002070BD10B50446A01C00F064F9FF21E1700A
:2024A00010BD000010B50C46FFF7DFFF30B101794A1C944204BF01F08001017110BD000059
:2024C0001CB504001EBFA078FF28FE280BD0002000901E232188E078172200F011F9FE21C6
:2024E000FF20A170E07013BD7CB54FF6FE729042054633D00B004FF6FF7608D1FFF7B5FF3E
:2025000060BB3046FFF7B1FF40B3058073BD012905D1FFF7AAFF040020D026800AE002298E
:202520001CD1012102F09EF8C0B92846FFF79DFF040013D0A078FF280ED0FE2807D000206A
:2025400000901E23E0781422294600F0D9F82046FFF79FFFFF20A0700021217173BD044894
:20256000008870473D4300204C43002090290100D44500203F450020C82901009829010082
:202580008C290100EBF900001DFA0000A1FA0000A5FB00001BFC00005BFC000041FB0000A5
:2025A000C5FB0000C1FC000049FD00002D210100312101003922010057220100812201003C
:2025C000A3220100112301004D230100704770478049086070477F49486070477E490870D3
:2025E0007047032290FBF2F080B201F06ABA0178B02904BF417800290CD10179122903D1EE
:20260000417C012906D101E01B2903D14088012101F074BA704710B5704C607002F04DF8BB
:20262000401C20700421607801F0CEF9BDE81040FFF722BA38B50D46280411D56749487870
:2026400008F052FD040008D02078A02804BF204600F008F8204607F075FD85F4004032BD67
:20266000002032BD38B586B001228DF80020044601A9FDF773F9050028D19DF806105548C6
:20268000CA0709D543682BB160886A4601A9984705461BE0062519E0036833B160886A4692
:2026A00001A99847050001D110E006259DF8050060B99DF806008DF810000021ADF81210D4
:2026C0008DF8145004A96088FDF757F89DF8000000281EBFA068002809F008FE55B99DF8CD
:2026E0000600122804D19DF80500012802D105E01B2803D06088012101F000FA07B030BD9B
:202700002DE9F041FF2880460E4617461D461ED0202007F0FFFC040017D00699B020207067
:2027200067706680257129B1182204F1080007F0E5FC04E0182204F1080007F0DDFC21460B
:20274000404609F025FC002002E0132000E00220BDE8F08110B54FF47A746243BDE81040FC
:202760000AF006B810B504001EBF2078FF28FE2803D009F083FFFF20207010BD80B5009384
:2027800013460A46014614480078FFF7B9FF02BD3EB504460D46FDF7ABFB50B901A82146C5
:2027A0000090ADF804507F230B4C20780022FFF7A7FF37BD3EB58DF804108DF805200146D0
:2027C000054D287801AC00947E230022FFF798FF37BD000050430020DC4500203D430020EE
:2027E000052923D006291BD0072918BF09291DD00B2918BF0D2919D00E2913D00F291CBF21
:202800001129122912D0162918BF17290CD01B2918BF1D290AD0522918BFD22906D007E0EA
:20282000C068704700687047806870474068704700207047F8B5052915461C4616D0062918
:2028400012D0092918BF112910D0122912D0162918BF17290CD01B2918BF1D290AD052296E
:2028600018BFD22906D007E0072606E0022604E0052602E0032600E001264FF6FF739D42D7
:2028800003D1FDF74AFB851B02E0D22908BF0C357719B8B201F0E6FD38B104B125807642DD
:2028A00031B2BDE8F44007F013BCF2BD80B5FFF797FF18B1BDE8024009F018BD01BD704733
:2028C00002460020022932D11178527801EB022189B24FF4C053C91A2AD0491E2AD040F6FB
:2028E000FF73C91A28D0491E28D0491E28D0491E28D0FD3928D0491E28D0491E28D0491E1B
:2029000028D0491E28D0491E28D0491E28D0491E28D0491E28D0F83928D0491E28D0491EF5
:202920002AD0491E26D0491E28D0491E28D0704714A0704714A0704714A0704714A070471F
:2029400014A0704714A0704714A0704714A0704714A0704714A0704714A0704714A070471F
:202960001AA070471AA070471AA0704711A0704711A0704712A0704710A0704711A07047FC
:2029800011A0704700180000011800000028000001280000022800000328000000290000CF
:2029A0000129000002290000032900000429000005290000002A0000012A0000022A0000BA
:2029C000032A0000042A0000052A0000062900000729000008290000DFF8401C087070477B
:2029E00070B5DFF83C4CDFF83C1C20760878C00009F024FCE061D8B10022DFF8281C002509
:202A000007E04FF6FF7320F8323000EBC206521C75600B789A42F4DB052000F0B2F8207E1D
:202A2000FFF7CBF8BDE87040DFF83C0C01F052BD70BD38B50D46280418D5DFF8301C087E3A
:202A400008F052FB04000ED02078B02808D1204600F00BF920B1217904F10800FFF726FF29
:202A6000204607F06FFB85F4004032BD002032BD7CB505001C460DD0ADF800108DF8022007
:202A800001956846FFF72BF806001BD1D4B16D89280001D1022615E00C2009F0CFFB010065
:202AA00008BF13260ED0002008608D808C60DFF8C00B026812B9016004E0024610680028B3
:202AC000FBD11160304676BD3EB5DFF8A42B05460C461068002101E00146006898B183885D
:202AE000AB42F9D1036800290CBF13600B6009F0EDFB69462846FFF740F8010002D10CB125
:202B0000019921603EBD01203EBDF8B5F0B901291AD10023DFF8081B4FF00C0C19E0641C2B
:202B20004D7EE0B2A84213D2C86900EBC305E7B26E680CFB07F7F05B0028F0D00120F2BD0E
:202B40001078BDE8F2401CE01820F2BD0220F2BD5B1CDFF8D00A0478A342F1DAC86930F8B5
:202B600033404FF6FF75AC42F2D00024D8E70246002022B9DFF8F42A537E0B707047022039
:202B800070472DE9F047DFF8984A8046002060764FF00C09E169486809FB08F780B109F041
:202BA00095FB0021DFF87C0A002605E0E269131DCDB243F83560491C0378CAB29A42F5D332
:202BC000DFF8606A3078784380B209F037FB050023D032787A43002107F08EFA00208246AD
:202BE0000CE04B6809FB02FC521C23F80CA06344C3F808A04245F4DB3D44401C3278C1B2A5
:202C0000914206D2E169C3B201EBC30100224D60F0E784F81980002000E01320BDE8F08790
:202C200080B50021C00707D5002310220121DFF8540CFFF71DFF0146084602BD80B5002131
:202C4000C00705D5DFF83C2C5089FFF73DFF0146084602BDDFF8181A096821B18A88824213
:202C6000FAD188687047002070472DE9F041DFF8B05986B0064600210122286AADF81010C7
:202C80008DF8122038B900F04BFF09F0D7FA0028286200F0D88018220021284607F02CFAA8
:202CA0003079471C02284FF6FF7817D006282DD0082830D00A2834D00C2854D00E2800F02C
:202CC0008480102800F08680122800F08880162800F08C80182800F09080B1E000F020FF76
:202CE000288029467088FCF751FD30B130892988884228BF0846288097E0318928888142EE
:202D000028BF01467088FFF743FD99E004A9304600F0AAF875E004AA0021304600F033F973
:202D20006FE000F09CF804004AD0708805AB42460B21FFF77FFD03006B6020D03079BDF8B8
:202D40001410039000220192029100F081F8040004D170882946FCF763FD25E01628686865
:202D600008BF002427E000F07AF8040028D0708805AB42460D21FFF75DFD686020B93089FB
:202D8000ADF81000112441E03179BDF814200391029203467189019100F05AF8040006D17B
:202DA00070882946FCF74AFD00283ED12AE01628686808BF002409F099FA200001D121E0B9
:202DC00001243089ADF810001CE004A9304600F06EF916E004A9304600F0E5F911E00DF114
:202DE000120204A9304600F096FA0AE00DF1120204A9304600F0D0FA03E004A9304600F04D
:202E00003CFB044620001BD0162C0ED07078142816D03079BDF81010287069802C712946F1
:202E20007088FCF7AAFC58B1012770882B46FAB21621FFF7A3FC18B1F9B22846FFF736FDE4
:202E40003046FFF7D4FB9DF8120006B0BDE8F0810095BDF816207088214600F011BC30896F
:202E60000DF11601FEF78EBF2DE9F04F054685B06888DFF8AC778B46FDF74FF8814604A8BD
:202E800000902B7B6989288905F10D02FEF74CFF00248046B8F1000F62D025E0B8F80A6021
:202EA000BDF8102069890DF112034046FEF78BFF002E8046EED0786800F80A60641C7968CE
:202EC000A2B236128E54601C441C7A68B8F1000F80B23FD0BDF812101154A2B2BDF8120066
:202EE0007968000A8854641C1FFA84FAA9F10500824535DA28790390A9F1070189B2002648
:202F00000291019607F11A030093BDF810203B6A6888414600F0B4FB002802BF7A8B288A9F
:202F20009042BDD1396A686907F018FA0028B7D078680028B2D1688800234FF6FF72072189
:202F4000FFF778FC00287860A8D12889ABF80000112015E0FF211154A2B278688154641C06
:202F6000A0B248B12404A40C3C8039466888FCF731FC28B1162003E02889ABF800000A2073
:202F800005B0BDE8F08F2DE9F043074685B078880C469146FCF7C1FF851EADB2DFF88066F2
:202FA0003189A81E884235DB002C33D100F09DF95FEA00082ED0B8F80A0038814146BDF803
:202FC00010207888FEF7FDFD044618BB3879A91E00F094F9414600F053FB0446D0B9B8F878
:202FE0000A30728B316A788800F023F80028044610D138894FF6FF7188420BD0401C388171
:20300000CEE704B90A243889A9F80000204605B0BDE8F08330890028F3D0718890FBF1F072
:20302000308031467888FCF7E5FB0028EFD01620EDE72DE9F8468246894615461E46FCF708
:203040006CFFDFF8DC450746208998B900234FF6FF7209215046FFF7EDFB606008B911209D
:2030600023E0A81C60803F1F208901466A18974206D203E06088A91C8842F4D0012014E0F5
:20308000401C20812A4660684654360A2089411C218161680E54606823894946184407F0F8
:2030A0002DF820892D1825810020BDE8F2862DE9F04F074685B07888DFF864650C46FCF75E
:2030C0002CFF804600254FF6FF79A8F1010A34E039790391A8F1010B1FFA8BF10291002230
:2030E00006F11A03019200930146336ABDF81020788800F0C5FA01003DD1706840B978883E
:2031000000234A460F21FFF795FB0028706034D03088718B0346C9188A45BCBFABEB00008C
:2031200070837068728B316A184406F0E7FF3188708B41186D1C3180ADB2B8898542BCBFCB
:20314000318851451DDAB86810F8152000EB450004A9437802EB032290B2FEF713FE0028B2
:20316000B6D14FF0010900F014F8706808B109F0BDF8484604E78146F5E700F00AF8112005
:20318000F8E778883146FCF767FB0028F2D01620F0E7B86810F8151000EB4500427801EB6A
:2031A0000221218070472DE9F84F074686B07888DFF86C648A46FCF7B0FE804600F095F859
:2031C00081464FF6FF700024ADF81400B9F1000FA5B274D0BDF8102078884946FEF7F1FCED
:2031E000002883466DD13879A8F1060100F086F8494600F045FA0028834662D1A0B2002885
:2032000049D1BDF81420788800231121FFF712FB0028706039D0708B001D7080641C7168F1
:20322000B9F80A004855A2B2B9F80A007168000A8854BDF8102079890DF112034846FEF7EB
:20324000C2FD651C81466C1CB9F1000FADB207D17168FF204855A3B27068FF22C25409E00D
:203260007168BDF812004855A2B2BDF812007168000A8854641C7068728B316AA3B2184496
:2032800006F03CFF708B0419A0E71120B9F80A10AAF8001010E0708B7188021D914218D1F1
:2032A000A8F1060340198342B8DA12E001003989AAF8001008BF0A2007B0BDE8F08F002069
:2032C00004E0B9F80A20AAF800205846A4B2002CECD0708895FBF0F0308031467888FCF70F
:2032E000CAFA0028E8D01620E6E704A800903B7B7989388907F10D02FEF716BD002206F18A
:203300001A03039089B2019200930291336ABDF8102078887047FEB505460E462889174670
:2033200002A9FEF72FFD04002ED0207A81060BD5BDF8080000F09EF903000BD06888122278
:2033400021469847040020D1687C002814BF5220287901E00E2418E00190002000906B8900
:20336000EA682989688800F08FFA040007D1687C68B96888FCF790FA48B11620FEBD16286A
:2033800003D100243C7002E0012429893180687C00B100242046FEBD2DE9FC4105460F4652
:2033A00068889046012101F05DF9002618B9142068700E205DE028896946FEF7E3FC040038
:2033C00053D0207A81060BD5BDF8000000F052F9030014D06888122221469847060045D16C
:2033E0006C88204600F006F930B94FF6FF7000F001F900283FD004800022894C02E00E2635
:2034000034E0521C637ED1B2994234D241685FFA82FE0C2303FB0EFE01EB0E031988002963
:20342000EFD10C2205F10801184606F067FE002088F800000C2205F10801204606F05EFE61
:20344000AA89688800231721FFF7F4F9A06050B1AA89296906F052FE68882146FCF722FA99
:2034600030B1162005E0112600E00126288938803046BDE8F6810926F8E72DE9FE43074665
:203480008946788800F0B6F800265FEA00084FD0387A012847D1414607F1080000F054F873
:2034A000B8B1D8F804401820019061880091A388A2682188788800F0E7F91628064602D141
:2034C0000020A0602FE030002DD02088A9F8000029E00025524E0DE0019060880090A38858
:2034E000A268788800F0D0F9162816D10021A1606D1CEDB2727E954214DAD8F804100C23D2
:203500006B430B441C46218861B1681C90421DBF9889002816201820DEE70028E8D021885A
:20352000A9F800100646404600F07EF8300005D17888FCF7C4F920B1162003E0162E08BFF7
:2035400000263046BDE8FE832DE9F84F00208846002781464FF00C0B314A517E89453CDAEC
:20356000D8F804400BFB09F52C442188A9B350B1884202BF658899B2A94202BFA188CF193D
:20358000CB1804D034E0A78863880846FB1809F10109E2E70024054616E00BFB04F146185A
:2035A000B16851B1B2881FFA8AF0284406F0A6FDB0888244B06808F099FE24B10C22002155
:2035C000304606F099FD641C4C45D8F80400E4DB856087800120BDE8F28FB9F1020FF9DB83
:2035E0004FF0000AB8B218B108F03CFE0028D1D10020F0E730B51D4AD269002100E0491C6F
:20360000084C2578CBB2AB4206D232F833408442F5D102EBC30030BD002030BDDD45002062
:2036200058430020B4430020F8B5054600260F4C617EF0B2884213D26A68F3B20C214B43DD
:20364000D718388860B1B86808B108F04FFE0C220021384606F050FD00203880761CE7E744
:203660004FF6FF712980F1BD31390100584300207C43002080B5FFF7EDFA00B1806802BDCF
:203680002DE9FE4F0D468246287AC10693461E464FF000080CD55846FFF7ECFF030000F06C
:2036A000EC800A22294650469847002880464DD128780C9F0D9CDDF8389002281AD168680C
:2036C0000178407801EB002189B24FF42052891A012910D9891E3AD0491E14D0FD397AD08A
:2036E000491E00F08180491E6DD0491E73D0491E00F09580ABE0002C2AD1E8680178398084
:203700000278416887E0002C22D101203880E9680A78327000216889401C80B2FEF732FBF0
:20372000398860B10278921C51183980418971704289120AB27041680278F01C6CE0091D18
:20374000398004220021701C06F0D6FC97E0002C66D1E86805880421398035702A0A7270C5
:203760000DF102012846FEF70DFB040021D0D4F80C90BDF802204FF6FF756B462946FEF7DB
:2037800022FB40B9237862688C480221FCF755FB08B9ADF8005099F8000002280BD1D9F856
:2037A00004100222301D06F0A9FC3888801C388001E0ADF80050BDF80000B070BDF8001065
:2037C000090AF1705BE0002C2AD1E8680168504609F02EF802E01CBBE86800880221398038
:2037E0003070000A70704AE0E86808F00BFF80B2A042B8BF4FF0070841DB844208BF00221F
:2038000005D009EB04028242B4BF4A46021B3A8092B2E8680119304606F070FC2FE014B1E1
:203820004FF00B082BE0E8680721398002783270437873704188B1704288120AF270017994
:203840003171C2887271C088000AB07117E05846FFF700FA00281CBFD0F800C0BCF1000F5A
:203860000BD00F980290CDF8049000943B46324629465046E047804601E04FF00E084046A0
:20388000BDE8FE8FE04500202DE9FE438146884617461E4602A94046FEF774FA040030D06C
:2038A000BDF80800FFF7D6F900281CBFD0F804C0BCF1000F23D00A980B9D0090334601955F
:2038C0003A4621464846E04706001BD1FE2D19D02078022816D160680178407801EB002197
:2038E00042F6021289B291420CD13878797800EB012082B24146484600F044F802E00E2659
:2039000000E001263046BDE8FE837047002070471FB58DF80820FE23120A8DF80920019376
:2039200000240094022302AAFFF7AEFF04B010BD7CB50129054605D0022922D1012100F02F
:2039400091FEF0B92846FFF755FE08B1FFF76CFE01A800904FF6FF760223194A314601204C
:20396000FEF7E2F90BE0E0680168284608F068FFBDF80420002331462046FEF724FA04001E
:20398000F1D173BDF8B50F4C0E462178FF290546174611D00A2006F0BDFB68B1B12101705B
:2039A0000022427002714580C680078101462078BDE8F44008F0ECBAF1BD0000902901006F
:2039C000A4290100DD45002010B5052918BF042903D0062918BF072909D10C460C22524BE0
:2039E00054431A1922F8301D9070002010BD022010BD38B50C4605462088052818BF042858
:203A000003D0062818BF072801D1606808B9022032BD0121284600F025FE08B9142032BDAC
:203A200028464FF6FE71884206D000F057FE2189884201D21B2032BD3C490878002821467A
:203A4000284603D0BDE8344000F095BABDE8344000F047BA80B51346354A00920A460121B2
:203A60002CE01FB500230192029305240A4600940A21304B00F0CCF904B010BD7FB50D46AB
:203A800004461646EB88AA886988288803F052F858B1002004210290009101962A46264B14
:203AA0001221204600F0B4F900E0182004B070BD80B51346214A00920A46132100F0DAF905
:203AC00002BD38B504461E4801700846012810D11C490D882D1D08F0EDFEA8B201B0A9B234
:203AE00094FBF1F1BDE830408AB20023002108F0E5BEBDE83240002008F0DCBE03B510484C
:203B00000178012981B004D102AA01A9012008F0D9FE07BD0B4A054B001F1080197070475E
:203B2000084800887047000080430020F24500207340010065410100F34001005941010092
:203B40003F430020DE4500207047000038B59D4C207000F097FC302200219B4806F0CCFACE
:203B60009A4A60781178081860700006000D08F065FB606088B162781201002106F0BCFAF2
:203B80000020FF256278C1B2914207D26168030601EB1352401C5572F4E76070207806F069
:203BA00091F9BDE832400FF2292000F093BC38B50D46290488B0834C0CD5207807F094FA69
:203BC000040004D000F029F8204606F0BBFA85F4004020E0E8071DD500F096F930B1A078D9
:203BE000A8B12078012108F01DFA10E0A17800291CBFE078FF280AD08DF80810002202A9D3
:203C00000191009265234FF6FF7100F032FB85F0010000E0002009B030BD7FB504462078F4
:203C200090284CD16078132815D10021654A06E0A368CDB233F8156030189070491CA5780C
:203C40009078CBB2AB42F3D3002838D01078012108F0E8F97FBD65882146684600F0DEF974
:203C60000146019808B3BDF80000052804D16946284600F028F81AE004281CBF0628072867
:203C800015D103460C21504A4B43D118A1F13003188860B198786A46294600F0C9FA30B976
:203CA000BDF8000004280AD005E0012903D1A06808B108F01BFB01212846FFF71FFF7FBDB7
:203CC0004049C8707047F0B50C4689B0054620890026042844DB616802A800F08FF8BDF838
:203CE0000A20182A61DA2189101D814235D19DF80800C10736D56068071D9DF8090000F093
:203D000010FB04002CD026719DF8081001290BD0132921D12078042822D1BDF80A2039460C
:203D200003A800F01AFA05E0BDF80A20394603A800F0BFF90646204600F014FB03A8019051
:203D4000002100919DF80830207A3246294600F090FA204600F0DCFA16B1284600F02EFB6F
:203D600009B0F0BD122817D16068011D03A800F0D6F90600F0D1144CA0890028ECD09DF8A2
:203D80000900009003A901919DF80830A07B0022294600F06EFADFE79DF80910ADF8006002
:203DA0006A462846FFF756FED6E70121ADF800101722ADF802206A469DF809102846FFF745
:203DC00049FECDE7F045002080430020B443002010B54FF6FE72904204460DD0012905D027
:203DE000022909D1012100F03DFC28B92046BDE81040002100F0E3BA10BD00000A780270C8
:203E00004B7843708A78C97802EB0122428070472DE9FC410D4616461F4609990A9A044669
:203E200001AB00F04DFA804608BB0199089808703346DFF814060178491CCAB2002A06BFB1
:203E4000012101220A460170019802710097204601990A79294600F00DF8804620B901989A
:203E60001E2100F074FA02E0019800F051FA4046BDE8F6812DE9FF4105460E46174698461D
:203E8000172000F0EFFA040026D00A9A100003D04146201D904700E000202670010A67707E
:203EA000A070E170001DADF808000522DFF89C150878ADF80020002801946946284602D037
:203EC00000F059F801E000F00CF80546280004D0204608F00BFA00E01325284604B0BDE843
:203EE000F08110B50C88DFF868250C235C431319303B5A6832B94A685A6009895881198111
:203F0000002010BD162010BD80B5052000F00FF858B9062000F00BF838B9042000F007F832
:203F200018B9072000F003F800B1012002BD1FB503460C21DFF818254B43D118A1F1300472
:203F40006268AAB1DFF80435197879B10192ADF8000069462289ADF80820608900F00BF836
:203F600010B1606808F0C2F900206060012000E0002004B010BDF8B50D460446288920B1B7
:203F8000DFF8D0140A88824201D21B20F2BD6868042106F09DF80646288930704FF6FE777C
:203FA0002989090A71702888B07020462988090AF1702D892D1DB84213D10C2006F0AAF85E
:203FC00068B190210170022202714780C58086600146DFF88404007807F0DAFF16E0132006
:203FE000F2BD3346AAB2002108F070FC010007D002280DD007280FD012280BD01F280CD192
:20400000DFF84814087808B1401E08700020F2BD1420F2BD0220F2BD0420F2BD70B5044699
:20402000002060600A79022A21D1CA88042A1EDB886801784378C57801EB032183788EB2DA
:20404000361D03EB052396429BB210D1052B18BF042B03D0062B18BF072B08D12181238090
:204060006FF0030106F034F86060002070BD012070BD10B50B880246022013700C88240A59
:2040800054700B88012B06D14888907004204988090AD17010BD022B0AD1488890704B8835
:2040A0001B0AD3708888107106208988090A517110BD022A1BDB0A784B7802EB0322028033
:2040C0000288012A05D18A78C97802EB012242800BE0022A09D18A78CB7802EB0322428036
:2040E0000A79497902EB0122828000207047012070470A8802700B881B0A43704A88827087
:204100004B881B0AC3708A8802718B881B0A4371CA888271C988090AC17108207047082A17
:2041200018D10A784B7802EB0322028011F8022F4B7802EB0322428011F8022F4B7802EB02
:204140000322828011F8022F497802EB0122C280002070470120704705E0022A00D10EE06C
:204160000120704700BF0A8802700988090A417002207047022A00D101E0012070470A783E
:20418000497802EB012202800020704770B54A8800F8012B04234C88240A00F8014B0D88D8
:2041A00000F8015B0E88360A00F8016B0A8872B94A88022A04D1496808F053FA082306E0DA
:2041C000032A04D10822091D05F098FF0C23184670BD10B5042A044628DB08784B7800EBD9
:2041E00003206080881C0178437801EB03212180831C2088A0B96088022807D1082A15D191
:204200000421184608F016FA60600DE0032808BF0C2A0BD108221946201D05F06FFF03E056
:20422000012808BF042A01D1002010BD012010BDF8B506460F461546102005F06BFF040077
:2042400015D0A02020700021617067802DB10C222946201D05F052FF03E00C22201D05F00F
:204260004BFF2146304607F093FE0020F2BD0120F2BD2DE9F04180460E4617461D4620208F
:2042800005F048FF040019D007990698A2222270677066802071657129B1182204F108002C
:2042A00005F02CFF04E0182204F1080005F024FF21464046BDE8F04107F06ABEBDE8F081B3
:2042C000F8B51C0006460D461ED0012100F0CAF9C0B162480278002300E05B1CD8B2904248
:2042E00014DA5F490F6807EB001148880028F4D1DBB2002240330A704B8039B1CE800D72D3
:204300002160F2BD1420F2BD0120F2BD1520F2BD10B504461022002105F0EEFEFF2262729E
:2043200010BD10B50246002300E05B1C4B4801788B420ADA4A4C206800EB0310418800295E
:20434000F3D001799142F0D110BD002010BD0A464FF47A714A4300F1090301460FF215006D
:2043600008F006BA10B50446607A08F087F9FF21617210BD10B504001CBF6288002A06D0D6
:20438000172100F005F82046BDE81040C0E710BD1CB504460A46207804280ED10021019168
:2043A00000911323E188207AFFF763FFE18802B0BDE810401222052030E013BD072170B545
:2043C0000446002549BB19E025490A682B0602EB1356307800281CBF707AFF280DD0F188F8
:2043E000A1420AD108F04AF9FF20707214213046FFF7CEFF3046FFF78BFF6D1C17490A78F4
:20440000E8B29042E0D30425FF222146A8B200F005F86D1CA8B20828F6DB70BD38B50C2358
:204420000B4C58432044A0F1300465898D420AD1606840B1FF2A1CBF0178914203D107F0F5
:2044400055FF0020606031BDB0430020F245002080430020DE450020F0450020F1450020FF
:20446000F445002080B5001D80B208F033FA28B1BDE804406FF0030105F02ABE02BD7047C2
:204480000020704770B5BC4C00220021204604F013F820783025684307F0D0FE6060C0B1E2
:2044A0000021002609E005FB01F202444FF6FF73491C53801671D662C9B222789142F2DB30
:2044C0000020002104F1080242F82010401C0C28FADB70BD30B5A84B002203F10805D4B21F
:2044E00055F8241029B1521CD4B20C2CF7DB132030BD03F1080141F82400002030BD2DE9C6
:20450000F84F8246894690469B46484600F07DF808B1112027E04FF6FF7000F076F804000C
:2045200020D00E9D0D9E0C9F0A9984F805B00622A01D05F0E3FD0622002104F10C0005F0BD
:20454000DBFDA4F8029084F8048084F800A00020E062A774A682E5820021484600F0FAF89C
:20456000002000E01520BDE8F28F10B500F04DF8040013D06088012100F0ECF8E06A08B11E
:2045800007F0A4FE30220021204605F0B5FD4FF6FF70608000212171002010BD022010BDDF
:2045A00038B50C46154600F030F860B10179002D14BF0C4321EA040404710221408800F00C
:2045C000C9F8002032BD152032BD38B50D4600F01CF8040017D020792870062261796970AC
:2045E000A81CA11D05F08AFD062204F10C0105F1080005F083FDA07CA873A18A2982E08AA9
:204600006882002032BD012032BDF0B500225A4B074600E0521C1C78D0B2A04208D25868F8
:20462000D5B23024654328444688BE42F2D1F0BD0020F0BDF0B5504B5C6800224FF6FF779F
:20464000014600E0521C1878824209DA3025554360194688BE42F5D0655D8D42F2D1F0BD94
:204660000020F0BD10B54FF6FE7290420C4606D0FFF7CBFF00281CBF0079204201D0012069
:2046800010BD002010BD80B5FFF7BFFF00B1807C02BD70B500200022374B08E05C68D5B2EF
:2046A000302675436619317901B1401C521C1C78D1B2A142F2D3C0B270BD2F480078704743
:2046C00010B50C46FFF7A1FF00281CBFC18AA14202D0C482002010BD012010BD80B5FFF7DE
:2046E00094FF00B1C08A02BD70B505460C461646FFF78BFF28B94FF6FE70854212D014205E
:2047000070BDC16A39B10079C20601D40F2070BD800702D40EB1052070BD887EA04201D2BC
:204720000C2070BD002070BD70B5040011D00026114D0BE068683021714308444FF6FF7382
:2047400042889A4218BFA047761CF6B228788642F0DB70BDF8B504460D460026064F07F19E
:20476000080050F8262012B1294620469047761C0C2EF4DBF1BD0000B443002038B50500E2
:204780000C4618BF002C01D1022032BD0321684600F03DF900F02FF822466946284600F05D
:2047A00078F8050004D103226946E01C05F0A6FC284632BD3EB505000C4618BF002C01D1CC
:2047C00002203EBD0322E11C684605F097FC00F012F801AA6946284600F05BF8010009D184
:2047E0000322214601A805F0B9FD012801D100203EBD01203EBD9DF8021001F03F0141F09E
:2048000040018DF80210704738B50D46002818BF002D8CB0144600D00CB9022011E0014618
:20482000102200F033F81022294604A806F0BEFD00F05DF80546102208A9204606F0B6FDAB
:2048400028460DB030BD80B52020FBF78FFB38B1024606480078BDE80840012107F038BC5E
:2048600001BD02480078012107F04CBCB143002070B58CB000F020F800F006F8290A8DF874
:204880001E108DF81F50B2E010222146684606F08DBD70B58CB000F00FF8FFF7F5FF032276
:2048A00029460DF11D0006F081FD00F020F8044603220DF12D019FE004460D46164630228D
:2048C0000021684605F018BC70B58CB0FFF7F4FFFFF7DAFF00F096F800F009F89DF82F10E4
:2048E0009DF82E2001EB022131800CB070BD6846D9E02DE9F14F94B0884692461E9C1F9F0D
:20490000209D219EDDF888909B463022002108A805F0F2FB1499102208A806F047FD10224D
:204920000021684605F0E8FB07225146FFF7AEFF072259460DF1070006F038FD280018BF76
:2049400001208DF80E00200018BF01208DF80F001022002104A805F0CFFB0622394605A8E5
:2049600006F024FD062231460DF11A0006F01EFD102241460CA806F019FD69460CA800F08C
:204980001BF808A800F08FF80446102210A90CA805F0B4FB04A90CA800F00EF808A800F059
:2049A00082F80546102210A9484606F0FFFC45EA040015B0BDE8F08F10B51022037811F831
:2049C000014B6340521E00F8013BF7D110BD70B50C468CB0154601461E461022FFF756FF79
:2049E0000822214604A806F0E1FC00F00BF8FFF77EFF0446102208A9304606F0D7FC20466F
:204A00000CB070BD0822294606A806F0CFBC70B504460D4600260BE007F0F6FDF2B2761CF2
:204A2000010AF3B2A154AB4202D2F1B2761C6054F0B2A842F0D370BD10B501688A08930058
:204A4000CC0801F0030003F00403E20018430B0902F008021C01104304F01004204349091A
:204A600040EA4110C0B210BD10B503689B0841EA83038C0823F0040304F0010443EA84039D
:204A8000CA0823F0080302F0010243EAC2030A0923F0F00302F0010243EA0213490943EA70
:204AA0004113036010BD00F1200200F1100107F015BF2DE9F8475FEA000987B00D4601D090
:204AC000140001D102203FE02F1DB8B207F0B6FB060037D0FBF797FB80462A464946301DAE
:204AE00006F064FC4FEA182986F8038086F802904FEA184575704FEA186A86F800A0FBF78F
:204B00007FFB0146102203A806F050FC0820009001ABBAB2314603A800F084F807000DD172
:204B200084F8008084F80190A57084F803A0082201A9201D06F03AFCFBF769FB304607F038
:204B4000C5FB00E01327384608B0BDE8F0872DE9F04F89B014001CBF129D002D0F4699469C
:204B600016D08046FFF751FD060008BF142056D02978687801EB0020A97800EB0141E878E3
:204B800001EB006AB06A504504D310F1010F01D0022044E027B13079810758BF01203ED5BD
:204BA0000822002101A805F0A7FA09F10407B8B207F044FB5FEA000B08BF13202FD04A46E9
:204BC00021460BF1040006F0F1FB04222946584606F0ECFB102206F1180105A806F0E6FBB6
:204BE0000820009001ABBAB2594605A800F01AF8040010D1082201A903A806F0D7FB082241
:204C0000291D03A805F0AAFB012811BF012451464046FBF752FD584607F058FB204609B086
:204C2000BDE8F08F2DE9FC4F064685B08A46144600F0E0F8814600F0DDF8B9F1000F804671
:204C400008BF132700F0C880B8F1000F08BF132700F0BF8000F0CEF8074600F0CBF8054632
:204C600000960FB9132635E00DB913262FE01022002105F041FA00983A462946FFF717FF64
:204C8000064620BB38780FF2A01B010604D44946384600F0BCF808E02946384600F0B7F87D
:204CA0004A465946284600F0A8F899F80000010604D44146484600F0AAF808E029464846CB
:204CC00000F0A5F842465946284600F096F8384607F0FCFA15B1284607F0F8FA37463800F7
:204CE00077D100F087F8834600F084F8BBF1000F054608BF132768D00DB9132762E02146E0
:204D000001F10F00C21000EB12700003001402D10024002209E0CA0801EB12731B09A1EB47
:204D200003135A1E9241D20F441E200180B2504422B12A46494600F060F818E0CA0801EB18
:204D400012731B09A1EB0311002301AACEB2B342B8BFC65C02DB0CBF80260026D6545B1C19
:204D6000102BF3DB2A46414601A800F046F810220021584605F0C0F9009E3846002739B28F
:204D8000A1420DDA01000BD1380180B20AEB000101AA584600F031F800F028F87F1CEEE729
:204DA00007000FD1109CDDF818A001AA2946584600F023F800F01AF8074622465946504624
:204DC00005F09CF9584607F081FA15B1284607F07DFA484607F07AFAB8F1000F1CBF404685
:204DE00007F074FA384607B0BDE8F08F5A4601A930465CE6102007F021BA30B50023C45CC9
:204E0000CD5C6C40D4545B1C102BF8DB30BD10B500220F23C45C42EA4402CA54C25CD20961
:204E20005B1EF7D510BD0000000000000000000000000000000000872DE9F047DFF86877D6
:204E4000064638688A4690464FF00009002408B1112035E01D000DD02120FBF787F895F81C
:204E60009C10814206D32220FBF780F895F89C10884201D2022023E0702007F0DFF938604C
:204E800008B913201CE07022002105F035F939684C703A681670386880F802A03868A0F8D5
:204EA00006808566C46604711EB100F0DAF981464C463968012048700CB100F00AFB48463D
:204EC000BDE8F08738B5DFF8E0562B68002443B11A79022A18BF032A05D0042A18BF062A44
:204EE00001D0122032BDDA888A4201D0022032BD0146102203F1080005F000F9286810218C
:204F00002830FFF784FD286800F1180200F12801083000F01BF929684A78087818B1032A08
:204F20000DD1022007E0042A02D10220487006E0032A04D10520487000F0A9F904462046A8
:204F400032BDDFF8641688607047DFF85C1648607047DFF854261268002A00D1704780B518
:204F6000D288824208BF012904D100F0B2FABDE801402FE301BD1720D0E2000070B586B0B7
:204F8000044600218DF80010A06805786A1E0A2A39D8DFE802F006060D1115191D21252922
:204FA0002D0001A900F0C5FE122824D106202BE001A900F031FF1EE001A900F047FF1AE065
:204FC00001A900F05EFF16E001A900F072FF12E001A900F089FF0EE001A900F0AFFF0AE0A5
:204FE00001A900F0B4FF06E001A900F0C7FF02E001A900F0DAFFE0B96088FFF706FB052626
:2050000028B9082613E007208DF8000014E0827CDFF89415082A0CBF8968496800291CBFCD
:205020000B68002B03D001AA2946984706468DF800609DF8000020B16088694600F007F8E9
:2050400003E00B2D18BFFFF7FEFB06B070BD38B50C46DFF858352246022100F0B4FF054670
:20506000207800F05BFA284632BD70B5DFF838450646206800280D4640D0C188B1423DD1D4
:205080004178062931D1017819B3816ED1F89830C26ED90705D5157BE90702D50722427045
:2050A0001DE0C3F3400100291FBFD168C1F340010029092109D1C3F3800100291EBFD16824
:2050C000C1F38001002902D00B21417007E0A06800E0606800281EBF406800288047206808
:2050E0004178122918D1002005E0112906D1280018BF3225284600F011FA0DE0280007D111
:205100003046FFF782FA18B1017941F01001017131462846FBF7C2FC012070BD10B5DFF831
:205120008844206888B1007800280CBF6068A06800281EBF4068002880472068417812298F
:2051400003D1BDE810400020E8E110BD2DE9F04FDFF854548DB0804628688946924608B901
:20516000122041E0C088FFF750FA040008BF14203AD009A800F0F8F92968087878B109AACC
:205180000192C96E0091FBF74FF8070018BF01270020FBF74CF865798346A61D0FE0C96E8F
:2051A000019109AA009204F1060BFBF73DF8050018BF01250020FBF73AF8677906460098E1
:2051C00007A900F05FFD019805A900F057FDCDF810A003960295CDF804B0009705AB07AA32
:2051E00049464046FFF785FB0DB0BDE8F08F78B5DFF8B4530446686885B000281CBF00687E
:2052000000280E461CD031788DF8041070788DF8050002A8B178FFF727FCF0786B688DF8C6
:205220000C0001AA7068049001211D682046A847010005D08DF8000069466088FFF707FF61
:2052400006B070BD38B5DFF86043A468002C1CBFA468002C03D0049D0095A04732BD0220B8
:2052600032BD1FB5D04C216871B1684600F07CF92168C8880978002914BFCD4BCD4B6A465B
:20528000072100F0A0FE00E0012004B010BD1FB5C54C2368102203F11801684604F02EFF58
:2052A0002068C54B0AE01FB5BF4C2368102203F12801684604F022FF2068C04BC0886A4665
:2052C000112100F080FE04B010BD0000F8B5B64F06463868C16E0024002940F0C6801020ED
:2052E00006F0ACFF39680028C86600F0BC808D6E1022314604F002FF39680878002840F0D8
:205300008980C86E00F10C02D5F89800177800F0010307F00107BB4218BF0023400843EAFC
:205320004000C5F89800C0F340031768C7F34007BB4206BF430803F00103002320F0020029
:2053400040EA4300C5F89800C0F380031768C7F38007BB4206BF830803F00103002320F01E
:20536000040040EA8300C5F89800C0F3C0031768C7F3C007BB4206BFC30803F0010300230A
:2053800020F0080040EAC300C5F89800C0F300231768C7F30027BB4206BF030A03F00103B7
:2053A000002320F4807040EA0320C5F89800C0F340231768C7F34027BB4206BF430A03F06C
:2053C0000103002320F4007040EA4320C5F89800C0F380231768C7F38027BB4206BF830ABB
:2053E00003F00103002320F4806040EA8320C5F89800C0F3C0231268C2F3C022934206BF3C
:20540000C20A02F00102002220F4006040EAC220C5F89800707800281CBF6878002802D00F
:2054200005220A7122E07068C0F3800038B995F8950010F0040008BF012010D011D008787D
:20544000002819BF287832782A7830780428D8BF042A06DC6AA302EB82021A44105C087124
:2054600004E0182402E0132400E011242046F2BD0A46534B15E018B585B00446ADF80010E5
:205480001046014608220DF1020004F037FE4D4B6A460B21204600F096FD06B010BD0A46EC
:2054A000494B112100F08FBD1CB58DF8001004461046014606220DF1010004F01FFE434BD7
:2054C0006A460821204600F07EFD13BD0A46404BE7E710B5344C2068E0B1C06E08B106F06E
:2054E000F5FE2068806D08B106F0F0FE2068C06D08B106F0EBFE2068006E08B106F0E6FED1
:205500002068406E08B106F0E1FE206806F0DEFE00202060BDE81040FFF7A3B91FB5224947
:20552000096879B14A6E03920B6E0293CA6D01928C6D0094CB78CA880978FBF73BFBBDE83B
:205540001F40C6E71FBD18490968102000291CBFCA6E002A07D0896E29B191F89C00117AA3
:20556000814238BF0846704770B505460E48006800281CBF846E002C0FD02078287004F119
:20558000950662786A70281D3178FFF76DFAF0792872D4F89810E96070BD2846BDE87040C1
:2055A0001022002104F0A8BDEC4300206B5E01007D5C0100855C0100075E01002B5E01007A
:2055C000A15E0100C55E01000D5F01001F5F01006B5F010010B52620FAF7C8FC0446C0B274
:2055E00068B1022006F02AFE48B110210170002242700146E0B2BDE8104006F0C9BC10BDCD
:205600000101020102010102010203030401030101010101030302010300000080B5DFF851
:20562000640501784A074CBFDFF85C050020FFF78CFC002002BDF8B588B005460E46174696
:2056400010220021684604F057FDDFF84045206800282AD0C288AA4204BF0178002924D16B
:20566000417806290DD100F1480200F1280104AB0830FFF7ACF9C0B9FFF765FF024604A9C5
:2056800024E0806D88B11129028A27D1974209D100F033F8012805D1FFF755FF024620683B
:2056A000816D13E03220FFF739FF2846FEF7ADFF04001CBFE06A002819D0018A8F4216D1FD
:2056C00000F01BF8012812D1E16A8A7E684604F015FD6946284607F005F90BE09742E4D129
:2056E00000F00BF80128E0D12068816DEDE7284607F0FCF8012009B0F0BD00F11201082285
:20570000304604F02BBE0000F8B5DFF880640746306884B01546002488B901290ED1281DA7
:20572000FFF78AF9E96802912A7A019200906B782A7879880020FBF7DAF90020DEE0C288B2
:205740007B889A4218BF0820F8D10278012A08BF0720F3D0491E092964D8DFE801F0056357
:20576000142ECB4C658395B52846FFF7AFFD30B9DFF81C040078042106F054FCBDE01828EE
:2057800033D10324B9E010222946383004F0B6FC30684178042902D103224270ADE000F1F0
:2057A000180200F128010830FFF7D0FCFFF76FFD00B108243168052084E010222946483041
:2057C00004F09CFC306800F148016A460830FFF7BDFC306800F138011022684604F0BEFD83
:2057E000012806D1FFF75FFD002875D13168062068E0042481E041780C2913D1C06D20B981
:205800001C2006F01BFD3168C8653068C06D48B100F076F8FFF797FE3168CA6D90760D20CE
:2058200031684FE0072468E0C36D002BFAD040780D28F7D1298819820822A91C03F1120012
:2058400004F05CFC3168886ED0F89820C2F3402000281FBFC86EC368C3F34020002826D03D
:205860000E202FE041780E29DCD1006E20B9172006F0E4FC316808663068006E08B100F044
:205880003FF831680F201DE041780F29CAD1006E0622691C113004F031FC316828780A6E52
:2058A00040F0020010743168886ED0F89820C2F3802000281FBFC86EC268C2F380200028EB
:2058C00016D01020487018E0406E38B9142006F0B5FC3168486608B908240EE03068406E20
:2058E00030B100F00DF831684A6E4FF0FF301061002000E02878FFF711FE204605B0F0BD35
:205900001022294604F0FABB10B5FFF7AAFC002842D19E4C2068816E91F89520D10709D54C
